:020000040800F2
:100000002805002001010008DF1E00081715000860
:10001000DD1E000889060008B12B00080000000062
:100020000000000000000000000000002B28000875
:10003000E106000800000000752700082D280008D0
:100040001B0100081B0100081B0100081B01000820
:100050001B0100081B0100081B0100081B01000810
:100060001B0100081B0100081B0100081B01000800
:100070001B0100081B0100081B0100081B010008F0
:100080001B0100081B0100081B0100081B010008E0
:100090001B0100081B0100081B0100081B010008D0
:1000A0001B0100081B0100081B0100081B010008C0
:1000B0001B0100081B0100081B0100081B010008B0
:1000C0001B0100081B0100081B0100081B010008A0
:1000D0001B0100081B0100081B0100081B01000890
:1000E0001B0100081B0100081B010008DFF80CD0F1
:1000F00000F03AFA00480047E134000828050020E3
:100100000648804706480047FEE7FEE7FEE7FEE7B1
:10011000FEE7FEE7FEE7FEE7FEE7FEE781280008D0
:10012000ED000008202A04DB203A21FA02F0002129
:10013000704721FA02F3D040C2F1200291400843F7
:1001400019467047D2B201E000F8012B491EFBD2DC
:1001500070470022F6E710B513460A4604461946D2
:10016000FFF7F0FF204610BD30B50B4601460020DA
:100170002022012409E021FA02F59D4205D303FA69
:1001800002F5491B04FA02F52844151EA2F10102EA
:10019000F1DC30BD2DE9F05F0546002092469B461C
:1001A00088460646814640241BE02846414647468D
:1001B0002246FFF7B7FF53465A46C01A914110D363
:1001C00011461846224600F0E1F92D1A67EB0108A6
:1001D0004F4622460120002100F0D8F917EB000914
:1001E0004E41201EA4F10104DFDC484631462A4678
:1001F0004346BDE8F09F2DE9FE4F804681EA0300AB
:10020000C00F0C46009021F0004123F00045B8EBF0
:100210000200A94105D24046214690461C460B46A5
:10022000024623F00040104347D0270DC7F30A00D1
:10023000C3F30A510290401A019040286BDAC3F3CD
:10024000130040F4801B0098924620B10023D2EBAB
:10025000030A63EB0B0B01985946C0F1400250466C
:1002600000F094F906460D4650465946019A00F0B2
:100270009CF910EB08006141002487EA115284EADE
:10028000E7731A4340D0009A62B3019A012A4FEAF9
:10029000075215DC001B61EB02014FF0004202EA3D
:1002A0000752CDE90042001C41F5801132462B4631
:1002B00000F09CF903B0BDE8F08F40462146F9E715
:1002C000001B61EB0201001C41F5801300185B412B
:1002D0002018A2F5001747EB030140EAD570B619C4
:1002E0006D4111E06D084FEA360645EAC0754FEAE8
:1002F0000752001B61EB0201001C41F58011490807
:100300004FEA30000019514132462B4603B0BDE898
:10031000F04F00F05CB90098012240000023D0EBC0
:10032000020263EBE073009821464FEAE074B8EBF9
:10033000000061EB0401E9E783F000435BE781F033
:10034000004158E72DE9FE4F81EA030404F0004420
:1003500021F0004100944FF0000B23F0004350EADD
:1003600001045ED052EA03045BD0C3F30A54C1F324
:100370000A552C44A4F2F3340194A0FB0254C1F3B7
:10038000130141F48011C3F3130343F4801301FB01
:10039000024400FB034E840A970A44EA815447EA68
:1003A0008357A4FB076802958D0A05FB07854FEA72
:1003B000932C04FB0C542705029D4FEA065847EA8C
:1003C0001637B5EB08056EEB070C870E920E47EA61
:1003D000811742EA8312A7FB0201B6EB0B0164EB23
:1003E00000042B0D43EA0C335E1844EB1C50DA4634
:1003F0005146E7FB0201C5F313044FEA0B3343EA0E
:1004000014534FEA0432019C43EA0603A4F10C049E
:100410000294009CCDE900B400F0E8F803B0BDE818
:10042000F08F00200146F9E72DE9F04D81EA030441
:1004300004F0004B21F0004514464FF0000A23F071
:10044000004150EA050220D054EA01021DD0C5F354
:100450000A570246C5F31303C1F31300C1F30A564A
:1004600040F4801543F48013A7EB0608101BD64612
:1004700008F2FD3873EB050002D308F1010801E032
:1004800092185B41B8F1000F03DA00200146BDE885
:10049000F08D00204FF48011064684460EE0171BB5
:1004A00073EB050705D3121B63EB050306434CEA08
:1004B000010C49084FEA300092185B4150EA0107ED
:1004C000EDD152EA030012D082EA040083EA05016A
:1004D000084305D0101BAB4106D20122002306E0E1
:1004E00000224FF0004302E06FF0010253101AEBBC
:1004F00006004CEB085110EB0A0041EB0B01BDE884
:10050000F04D00F064B8C1F30A52C1F3130140F298
:10051000FF3341F480119A4202DA0020014670470D
:1005200040F233439A42A2F2334202DC5242FFF7D6
:10053000F9BD00F02BB8000030B5041E71F10004C5
:1005400004DB4FF00044404264EB0101141E73F1E0
:10055000000405DB1C464FF00043524263EB0403EA
:10056000994208BF904230BD064C074D06E0E06856
:1005700040F0010394E8070098471034AC42F6D3EA
:10058000FFF7B8FD90790008B0790008202A04DB55
:10059000203A00FA02F1002070479140C2F1200396
:1005A00020FA03F3194390407047202A06DBCB174B
:1005B000203A41FA02F043EAE07306E041FA02F31E
:1005C000D040C2F12002914008431946704710B54F
:1005D000141E73F1000408DA401C41F10001921866
:1005E0005B411A4301D120F0010010BD2DE9F04D0F
:1005F00092469B4611B1B1FA81F202E0B0FA80F264
:1006000020329046FFF7C2FF04460F4640EA0A0038
:1006100041EA0B0153465A46084313D0114653EAA8
:10062000010019D0C8F140025046FFF77BFD054696
:100630000E46504659464246FFF7A8FF084305D0EC
:10064000012004E020463946BDE8F08D0020054336
:1006500046EAE0762C4337430A986305E40AA0EBA8
:1006600008000022FD0A44EA47540A3002D500205F
:100670000146E9E7010510196941DDE9084500195E
:100680006941BDE8F04DA2E7FEE7000010B50B4C54
:1006900001221102204600F027F9012240210848DA
:1006A00000F022F901225102204600F01DF9042138
:1006B000044800F04DFE002010BD0000000801407D
:1006C000000C01409000002001B54FF4FA730122A4
:1006D0006946024800F090FC08BD00003800002088
:1006E0007047704770B5044600F004F90546601C79
:1006F00002D004480078044400F0FCF8401BA042FB
:10070000FAD370BD000000202DE9F84FDFF8B89152
:10071000002409F1040A0AF1040B23460F270BF108
:10072000040EC9E00125A5402A40AA427DD1674EAA
:10073000D1F804C0ACEB0608B44532D014DCBCF1EF
:10074000030F3AD009DCBCF1000F2AD0BCF1010F35
:100750001CD0BCF1020F31D11DE0BCF1110F17D03C
:10076000BCF1120F2AD119E0B8F5881F19D006DCA8
:10077000B8F5803F15D0B8F5801F1FD111E0B8F54E
:10078000001F0ED0B8F5041F18D10AE0CB6815E0A1
:10079000CB681B1D12E0CB6808330FE0CB680C332D
:1007A0000CE08B682BB1012B4FF0080303D045619F
:1007B00004E0042302E0056100E00023FF2A01D8E1
:1007C000064601E000F104064FEA840501D9A5F1CF
:1007D0002005D6F8008007FA05FC28EA0C0803FA81
:1007E00005F548EA0508C6F800804D68ED0062D5B9
:1007F000374DAE6946F00106AE61AD6924F00306DF
:1008000005F001050095334D06EB050CDCF80850AA
:10081000A607360F07FA06F825EA0805DFF8B880BC
:10082000404503D14FF0000817E044E0DFF8AC800A
:10083000404502D14FF001080FE0DFF8A4804045A9
:1008400002D14FF0020808E0DFF89880404502D15D
:100850004FF0030801E04FF0040808FA06F848EAF0
:100860000508CCF808804D68D9F80060ED034D46C6
:1008700001D5164300E096432E604D68DAF800601B
:10088000AD03554601D5164300E096432E604D68F2
:10089000DBF80060ED025D4601D5164300E09643AB
:1008A0002E604D68DEF80060AD02754601D5164336
:1008B00000E096432E60641C0D682A46E5407FF4F4
:1008C00031AFBDE8F88F00000004014000001110B6
:1008D000001002400000014000080140000C0140EF
:1008E00000100140001401400AB101617047090481
:1008F000FBE700000148806870470000000000200E
:10090000024881680278114481607047000000202D
:10091000074810B5016841F010010160032000F0A4
:1009200067F8002000F006F800F024F8002010BD61
:100930000020024070B50D4D04464FF47A712878BE
:10094000B1FBF0F00A490968B1FBF0F000F002FCDD
:1009500048B9102C07D200222146501E00F028F87A
:1009600000206C6070BD012070BD00000000002000
:100970000C0000200C4808B5816941F0010181613B
:10098000816901F001010091C16941F08051C161AB
:10099000C06900F0805000900448416821F0E06197
:1009A00041F00071416008BD0010024000000140AC
:1009B000F0B40E4B1B680C46C3F30223C3F10705CA
:1009C000042D00D90425191D072901D2002300E0B8
:1009D000DB1E012606FA05F1491E214099409E4082
:1009E000761E16403143F0BC02F0F4B80CED00E086
:1009F000064900F0070208684FF6FF03184040EA76
:100A00000220034A10430860704700000CED00E02C
:100A10000000FA052DE9F0470F46050061D0434E6E
:100A2000306800F00700B84209D2306820F00700B3
:100A300038433060306800F00700B84251D1286870
:100A40003B4C810712D5400703D5606840F4E06055
:100A500060602878000703D5606840F460506060EB
:100A60006068A96820F0F000084360602878C0073B
:100A700028D06868012810D02168022810D0890782
:100A800000292EDA616821F0030101436160FFF75C
:100A900031FF804641F288390DE021688903EFE794
:100AA0008901EDE7FFF726FFA0EB0801494502D9D0
:100AB0000320BDE8F0876068696800F00C00B0EBC7
:100AC000810FEFD1306800F00700B8420BD93068D1
:100AD00020F0070038433060306800F00700B8426B
:100AE00001D00120E5E72878400705D56068E9686E
:100AF00020F4E060084360602878000706D560684D
:100B0000296920F4605040EAC100606000F038F8C4
:100B10006168084AC1F30311515CC8400649086086
:100B200006480068FFF706FF0020C2E700200240E9
:100B300000100240FE3400080C00002004000020D9
:100B40000448054900684968044AC1F30221515C20
:100B5000C84070470C000020001002400E3500080D
:100B60000448054900684968044AC1F3C221515C40
:100B7000C84070470C000020001002400E350008ED
:100B800012A185B00FC98DE80F0014A0144A0068A7
:100B900004905168134801F00C03042B10D0082B6B
:100BA0000ED1C1F38343C9031DF803000AD5516870
:100BB00004AAC1F34041515C0A4A5043B0FBF1F032
:100BC00005B0704708494843FAE7000002030405EE
:100BD000060708090A0B0C0D0E0F10100102000089
:100BE0000010024000127A0000093D002DE9F84F84
:100BF000040070D02078C04DC00749D06868C0F3A9
:100C00008100012807D06868C0F38100022809D15B
:100C10006868C00306D52868800339D56068002855
:100C2000E7D035E06068B0F5803F0BD010B1B0F58B
:100C3000A02F11D0286820F480302860286820F484
:100C4000802002E0286840F480302860606890B11D
:100C5000FFF750FE06460AE0286840F4802028602E
:100C6000F0E700BFFFF746FE801B642873D82868B2
:100C70008003F7D50CE0FFF73DFE064605E000BF18
:100C8000FFF738FE801B6428F0D828688003F7D46B
:100C900020789A4E80074FF001094FF0000839D5AF
:100CA000686810F00C0F07D06868C0F38100022854
:100CB00009D16868C00306D42868800714D5206964
:100CC000012808D110E02069B0B1C6F80090FFF704
:100CD00011FE074605E00AE1FFF70CFEC01B0228E3
:100CE000C4D828688007F7D52868616920F0F80023
:100CF00040EAC10028600DE0C6F80080FFF7FAFD69
:100D0000074604E0FFF7F6FDC01B022823D8286839
:100D10008007F7D4207800072CD57948A169D9B18C
:100D2000C0F80090FFF7E6FD074604E0FFF7E2FD9C
:100D3000C01B02280FD8686A8007F7D571484FF4A6
:100D4000FA510068B0FBF1F0009000BF0098411E1E
:100D50000091FAD20EE080E0C0F80080FFF7CAFDF3
:100D6000074604E0FFF7C6FDC01B022875D8686A75
:100D70008007F7D42078400760D5E8690027C000D5
:100D800008D4E86940F08050E861E869012700F084
:100D9000805000905C480168C90513D401688346FF
:100DA00041F480710160FFF7A5FD824606E000BFB7
:100DB000FFF7A0FDA0EB0A0064284ED8DBF8000086
:100DC000C005F5D5E06801280AD008B1052813D080
:100DD000286A20F001002862286A20F0040002E05E
:100DE000286A40F001002862E06841F2883B98B12F
:100DF000FFF780FD82460BE0286A40F0040028627D
:100E0000EEE700BFFFF776FDA0EB0A0159455AD87F
:100E1000286A8007F6D50CE0FFF76CFD824605E0F6
:100E2000FFF768FDA0EB0A0159454CD8286A8007F6
:100E3000F6D41FB1E86920F08050E861E06988B31A
:100E40006968C1F38101022944D00228C6F8608094
:100E500004D0FFF74FFD044638E034E0FFF74AFDC9
:100E6000074604E0FFF746FDC01B02282BD8286880
:100E70008001F7D4206AB0F5803F05D16868A16889
:100E800020F4003008436860D4E908010843696829
:100E900021F4741108436860C6F86090FFF72AFDDA
:100EA000044606E025E000BFFFF724FD001B0228F2
:100EB00009D828688001F7D51BE000BFFFF71AFDAD
:100EC000001B022802D90320BDE8F88F28688001A2
:100ED000F4D40EE00128F7D06868226A00F480316B
:100EE000914204D1616A00F47010884201D001205F
:100EF000EAE70020E8E7000000100240000042425C
:100F0000800442420C0000200070004070B50400D4
:100F100005D00025A56294F8510010B106E001202B
:100F200070BD84F85050204600F02EF8022084F85E
:100F300051002068016821F040010160D4E90101FD
:100F40000843D4E903121143084361690843218B24
:100F500001F400710843E1690843216A0843A16A6A
:100F6000084321680860A069042101EA1040216853
:100F700048602068C16921F40061C1616565012094
:100F800084F85100002070BD30B585B00024009475
:100F900001940294039400681449884223D11448B0
:100FA000816941F480518161816901F4805104912A
:100FB000816941F00401816180690E4D00F00400F7
:100FC0000490A02000900220019003200390694625
:100FD0002846FFF799FB4020CDE9000469462846E2
:100FE0000294FFF791FB05B030BD000000300140D6
:100FF00000100240000801402DE9F84F044690F827
:10100000500000271D461646894601280DD04FF096
:10101000010B84F850B0FFF76DFC804694F8510046
:10102000BA46012804D002278EE00220BDE8F88FDE
:10103000B9F1000F7DD0002E7BD0032084F8510041
:10104000C4F854A0C4F83090A686E686C4F838A048
:10105000A4F83CA0A4F83EA0C4F844A0C4F840A062
:10106000A068B0F5004F04D12068016841F48041C8
:10107000016020680168490603D4016841F040011D
:101080000160E068B0F5006F606803D030B3012EF6
:1010900024D040E008B1012E1CD1206B21680088CB
:1010A000C86006E020688168890709D5216B098836
:1010B000C160206B801C2063E08E401EE08609E04A
:1010C000FFF718FCA0EB0800A84202D3681C01D06F
:1010D00031E07DB3E08E0028E4D11FE0206B216871
:1010E0000078087306E020688168890709D5216BBC
:1010F00009780173206B401C2063E08E401EE0865F
:1011000009E0FFF7F7FBA0EB0800A84202D3681C38
:1011100001D010E075B1E08E0028E4D142462946A6
:10112000204601F028FB08B120206065A06820B1AE
:1011300007E008E0FFE7032706E02068C168806851
:101140000090606D00B1012784F851B084F850A080
:1011500038466BE710B5401EB0F1807F01D3012007
:1011600010BD4FF0E02460610F21601701F032FDE7
:101170000020A06107202061002010BD70B590F80C
:101180003C20012A19D0012400F83C4F0222427071
:1011900050F83C3C5A689D6822F070060A6849681D
:1011A000324325F0800529435A6050F83C2C916069
:1011B000447000210170084670BD022070BD00001F
:1011C00000B585B000210091019102910391006862
:1011D0000F4988421AD10F48816941F0100181619D
:1011E0008069694600F01000049080200090022081
:1011F000019003900848FFF787FA0848416821F4F6
:10120000406141F0E06141F44061416005B000BDE2
:1012100000040040001002400010014000000140A6
:1012200070B5044690F83C000D4601280DD001260B
:1012300084F83C60022084F83D0042B1042A18D0B2
:10124000082A2AD00C2A4DD139E0022070BD20682E
:1012500001F07EFB2068816941F00801816120680E
:10126000816921F004018161206881692A69114343
:1012700011E0206801F094FB2068816941F400616D
:1012800081612068816921F48061816120688169C0
:101290002A6941EA0221816124E0206801F0ACFB67
:1012A0002068C16941F00801C1612068C16921F06D
:1012B0000401C1612068C1692A69114311E02068F5
:1012C00001F0C6FB2068C16941F40061C16120687A
:1012D000C16921F48061C1612068C1692A6941EA5C
:1012E0000221C16184F83D60002084F83C0070BD9B
:1012F00010B5040003D094F83D0010B107E00120C0
:1013000010BD002084F83C00204600F00DF80220BB
:1013100084F83D00211D206801F0D6FA012084F8F0
:101320003D00002010BD000008B500680649884255
:1013300008D10648C16941F00201C161C06900F0ED
:101340000200009008BD00000004004000100240B0
:1013500010B504460068012201F0ECFA0949206842
:10136000884203D1416C41F40041416420688168A6
:1013700001F00701062903D0016841F00101016075
:10138000002010BD002C014070B5040004D094F87A
:101390003900002510B106E0012070BD84F83850F6
:1013A000204600F023F8242084F839002068C16822
:1013B00021F40051C160204601F06CFB20680169F6
:1013C00021F4904101612068416921F02A014161C5
:1013D0002068C16841F40051C160E563202084F8B1
:1013E000390084F83A00002070BD000030B585B0A7
:1013F00000240094019402940394006814498842E4
:1014000023D11448C16941F40031C161C16901F4BB
:1014100000310491816941F00401816180690E4DC0
:1014200000F00400049004200090022001900320AA
:10143000039069462846FFF767F90820CDE90004C4
:10144000694628460294FFF75FF905B030BD0000F9
:101450000044004000100240000801402DE9F8431C
:10146000044690F839001F4616460D46202850D1F4
:10147000A5B19EB194F8380001284AD0012084F823
:1014800038004FF00008C4F83C80212084F839006F
:10149000FFF730FAA6848146E68426E00120BDE805
:1014A000F883E08C401EE084A0684B46B0F5805F76
:1014B0004FF000024FF080012046009703D001F06A
:1014C00045FBE8B90DE001F041FBC8B92888216867
:1014D000C0F308004860206908B16D1C05E0AD1C30
:1014E00003E0216815F8010B4860E08C0028D8D192
:1014F0004B46002240212046009701F027FB08B10F
:101500000320CCE7202084F8390084F838800020BC
:10151000C5E70220C3E7FEE72DE9F0410646EF23C9
:1015200000211A46084600F0DBFA012211020B489E
:10153000FFF7DAF90025370A00243846FFF7C4F828
:10154000F0B2FFF7C1F8641CA4B2F02CF5D36D1C07
:10155000ADB2F02DF0D3BDE8F081000000080140ED
:1015600070B514460B46024600F0BAFA0122110289
:101570000A48FFF7B9F90A4D002240212846FFF733
:10158000B3F9200AFFF7A0F8E0B2FFF79DF828466C
:10159000BDE8704001224021FFF7A6B900080140D4
:1015A000000C014070B50122164E04465502294632
:1015B0003046FFF799F96420FFF794F80022294696
:1015C0003046FFF791F96420FFF78CF80122294695
:1015D0003046FFF789F96420FFF784F80A49F020C4
:1015E0000C714880088054B16824362000F040FA1D
:1015F000204600F053FABDE8704000F007B8C82458
:10160000F3E70000000801402C00002010B5EF2097
:1016100000F02EFAEB2000F02BFA142000F03EFA36
:10162000FE2000F025FAEF2000F022FAEB2000F077
:101630001FFA142000F032FA842000F019FA40203A
:1016400000F02CFA852000F013FAFF2000F026FAB3
:10165000862000F00DFAFF2000F020FA872000F02D
:1016600007FAFF2000F01AFA882000F001FA0A2099
:1016700000F014FA892000F0FBF9212000F00EFAA6
:101680008A2000F0F5F9002000F008FA8B2000F025
:10169000EFF9802000F002FA8C2000F0E9F9012037
:1016A00000F0FCF98D2000F0E3F9012000F0F6F9DC
:1016B0008E2000F0DDF9FF2000F0F0F98F2000F01F
:1016C000D7F9FF2000F0EAF9B62000F0D1F90020A8
:1016D00000F0E4F9202000F0E1F9362000F0C8F92C
:1016E000082000F0DBF93A2000F0C2F9052000F0F4
:1016F000D5F9902000F0BCF9082000F0CFF90820BF
:1017000000F0CCF9082000F0C9F9082000F0C6F973
:10171000BD2000F0ADF9062000F0C0F9BC2000F0BB
:10172000A7F9002000F0BAF9FF2000F0A1F960202D
:1017300000F0B4F9012000F0B1F9042000F0AEF996
:10174000C32000F095F9132000F0A8F9C42000F0A0
:101750008FF9132000F0A2F9C92000F089F92220A6
:1017600000F09CF9BE2000F083F9112000F096F9FA
:10177000E12000F07DF9102000F090F90E2000F03B
:101780008DF9DF2000F074F9212000F087F90C209A
:1017900000F084F9022000F081F9F02000F068F9EF
:1017A000452000F07BF9092000F078F9082000F0CE
:1017B00075F9082000F072F9262000F06FF92A2050
:1017C00000F06CF9F12000F053F9432000F066F9C5
:1017D000702000F063F9722000F060F9362000F00C
:1017E0005DF9372000F05AF96F2000F057F9F22028
:1017F00000F03EF9452000F051F9092000F04EF9C3
:10180000082000F04BF9082000F048F9262000F0ED
:1018100045F92A2000F042F9F32000F029F943208D
:1018200000F03CF9702000F039F9722000F036F930
:10183000362000F033F9372000F030F96F2000F047
:101840002DF9ED2000F014F91B2000F027F90B20F2
:1018500000F024F9AE2000F00BF9772000F01EF91B
:10186000CD2000F005F9632000F018F9702000F099
:10187000FFF8072000F012F9072000F00FF904200C
:1018800000F00CF90E2000F009F90F2000F006F925
:10189000092000F003F9072000F000F9082000F00B
:1018A000FDF8032000F0FAF8E82000F0E1F8342019
:1018B00000F0F4F8622000F0DBF8182000F0EEF8F9
:1018C0000D2000F0EBF8712000F0E8F8ED2000F0BA
:1018D000E5F8702000F0E2F8702000F0DFF8182042
:1018E00000F0DCF80F2000F0D9F8712000F0D6F8F5
:1018F000EF2000F0D3F8702000F0D0F8702000F056
:10190000CDF8632000F0B4F8182000F0C7F81120DB
:1019100000F0C4F8712000F0C1F8F12000F0BEF82A
:10192000702000F0BBF8702000F0B8F8182000F02C
:10193000B5F8132000F0B2F8712000F0AFF8F320F2
:1019400000F0ACF8702000F0A9F8702000F0A6F8C4
:10195000642000F08DF8282000F0A0F8292000F085
:101960009DF8F12000F09AF8012000F097F8F1209E
:1019700000F094F8002000F091F8072000F08EF8B5
:10198000662000F075F83C2000F088F8002000F098
:1019900085F8CD2000F082F8672000F07FF8452020
:1019A00000F07CF8452000F079F8102000F076F87F
:1019B000002000F073F8002000F070F8002000F024
:1019C0006DF8672000F054F8002000F067F83C2024
:1019D00000F064F8002000F061F8002000F05EF8EC
:1019E000002000F05BF8012000F058F8542000F0CF
:1019F00055F8102000F052F8322000F04FF89820EF
:101A000000F04CF8742000F033F8102000F046F895
:101A1000852000F043F8802000F040F8002000F01E
:101A20003DF8002000F03AF84E2000F037F8002092
:101A300000F034F8982000F01BF83E2000F02EF85B
:101A4000072000F02BF8352000F012F8212000F0DC
:101A50000FF8112000F00CF87820FEF743FE292043
:101A600000F006F8BDE810401420FEF73BBE000071
:101A700010B5044600224FF480710648FEF734FF8B
:101A8000002240210448FEF72FFF2046BDE8104009
:101A9000FEF71ABE00080140000C014070B5054673
:101AA000012211020948FEF71FFF094C00224021C4
:101AB0002046FEF719FF2846FEF706FE2046BDE841
:101AC000704001224021FEF70FBF000000080140D6
:101AD000000C0140014908607047000038040040D4
:101AE0002DE9F04107461C4615460E462A20FFF711
:101AF000BFFF0020FFF7D2FFF8B2FFF7CFFF0020B3
:101B0000FFF7CCFFE8B2FFF7C9FF2B20FFF7B0FFCC
:101B10000020FFF7C3FFF0B2FFF7C0FF0020FFF780
:101B2000BDFFE0B2FFF7BAFFBDE8F0412C20FFF7A0
:101B30009FBF0000FEB551A001F03CF8FEF7A6FDE6
:101B400054A001F037F84FF47A742046FFF7C2FF33
:101B50000120FFF727FD0020FFF7DEFC55A001F074
:101B600029F80023F0211A46084600F061FD56A02E
:101B700001F020F85C4800F08DFD5C4800F090FD1D
:101B80005BA001F017F8002000F0AAF92046FEF74C
:101B9000A9FD5BA001F00EF8002402277822CDE910
:101BA00000741F231146104600F01CFA4FF4FC6528
:101BB00004260095CDE9016478220C23002110460B
:101BC00000F04EFB0095CDE901647822F023E4217A
:101BD000104600F045FB0095CDE9016478230C2206
:101BE0001946002000F03CFB0095CDE90164782304
:101BF000F0221946E42000F033FB46200346009013
:101C000019225521424800F0FBFA4FF6FF70CDE94A
:101C10000040404B40A28C21382000F0FFFB7B218C
:101C2000404B41A20846CDE9004500F0C3FC032526
:101C30004FF6E070CDE90005462378211A4602945C
:101C4000084600F00DFB1F20CDE900057821402358
:101C5000B0220294084600F003FB4FF47840CDE92F
:101C600000077822D22311460294104600F0F8FAB9
:101C7000BDE8FE402FA000F09DBF00004C43445F34
:101C800031494E32385F746573742044656D6F0D51
:101C90000A0000004C43445F31494E32385F20490E
:101CA0006E697420616E6420436C6561722E2E2E05
:101CB0000D0A00005061696E745F4E6577496D6171
:101CC00067650D0A0000000053657420436C656170
:101CD0007220616E6420446973706C61792046756E
:101CE0006E74696F6E0D0A00191500086115000801
:101CF0005061696E745F436C6561720D0A0000008B
:101D000064726177696E672E2E2E0D0A0000000046
:101D10007852000820000020CEA2D1A9B5E7D7D381
:101D2000000000001800002057415645534841521A
:101D300045000000717569742E2E2E0D0A000000FA
:101D40002DE9F04186B000242448009401940294C7
:101D50000394816941F020018161816901F02001D2
:101D60000491816941F004018161816901F00401FC
:101D70000491816941F010018161816901F01001D4
:101D80000491816941F0080181618069144F00F07C
:101D900008004FF440750490012229463846FEF7AA
:101DA000A3FDDFF84080012240214046FEF79CFD64
:101DB0000095022601250396CDE90154694638466F
:101DC000FEF7A2FC4020CDE90005CDE902466946B8
:101DD0004046FEF799FC06B0BDE8F08100100240D5
:101DE00000080140000C0140104810B50E49016088
:101DF0004FF48271416000218160C1604FF4007234
:101E00000161C0E905120822C0E90721416281622F
:101E10000A21C162FFF77AF8002803D0BDE810401C
:101E2000FEF75FBC10BD000000300140380000200C
:101E300010B58AB0002407941C2168460894FEF768
:101E400088F917481549016040F22B11C0E90114C7
:101E500040F2E731C0E9031480218161FFF748FABD
:101E600008B1FEF73EFC079407A90D480894FFF758
:101E700085F908B1FEF735FC6020CDE90004029435
:101E80000422694606480494FFF7CAF908B1FEF730
:101E900028FC0348FFF794F90AB010BD0004004085
:101EA000900000200C4810B50A4901604FF4E13160
:101EB0004160002181600C22C160C0E9041281618F
:101EC000C161FFF761FA002803D0BDE81040FEF7BA
:101ED00008BC10BD00440040D0000020FEE7704761
:101EE0000149496808470000100000202DE9F05F13
:101EF00081462B481E46DDF828B0838888464B452E
:101F000002D3C188414504D2BDE8F05F25A000F0AE
:101F100051BEB088410700D0012101EBD000203A2A
:101F2000F1885043484331684FF0800A0F1800256C
:101F300030E0002425E000BFABF57F41FF39397860
:101F400004F007022AFA02F001EA000101D009B9FF
:101F500008E081B108EB050081B209EB040080B212
:101F60000B9A06E008EB050081B209EB040080B291
:101F70005A4600F09BFBE043400700D17F1C641CE5
:101F8000A4B2B088A042D7D83079400700D07F1CD7
:101F90006D1CADB2F088A842CBD8BDE8F09F000020
:101FA000100100204465627567203A205061696E17
:101FB000745F447261774368617220496E70757412
:101FC000206578636565647320746865206E6F7240
:101FD0006D616C20646973706C61792072616E67E9
:101FE000650D0A002DE9FF4F8046834885B00F46F6
:101FF00084881399444502D3C088B84205D809B0F3
:102000007E48BDE8F04F00F0D5BD03200024A0EBD2
:10201000420015B20FFA80FA01297AD0E9E026468B
:1020200061E000BF4FF0010908EB040007EB060B6D
:1020300002901FFA8BF1CDF8009080B24B46089ABF
:1020400000F098F9A8EB040004901FFA8BF1CDF88A
:10205000009080B20123089A00F08CF93819CDE97C
:10206000009081B2A8EB060B1FFA8BF00123089AAF
:1020700000F080F9381B039081B2CDF800901FFA70
:102080008BF00123089A00F075F90498A7EB060B72
:102090001FFA8BF1CDF8009080B20123089A00F06E
:1020A00069F902981FFA8BF1CDF8009080B20123F4
:1020B000089A00F05FF9039808EB060B81B2CDF89F
:1020C00000901FFA8BF00123089A00F053F9019851
:1020D000CDF8009081B21FFA8BF00123089A00F02E
:1020E00049F9761C36B2AE429CDDBAF1000F06DA31
:1020F0000AEB8400801D0FFA80FA08E009E0611BFA
:102100000AEB81000A306D1E0FFA80FA2DB2641CB2
:1021100024B2AC4283DD09B0BDE8F08F08EB0400C7
:10212000012607EB050902901FFA89F1009680B29B
:10213000129B089A00F01EF9A8EB040003901FFA06
:1021400089F1009680B2129B089A00F013F93819B1
:10215000CDE9006081B2A8EB05091FFA89F0129B56
:10216000089A00F007F9A7EB040B1FFA8BF11FFA8E
:1021700089F00096129B089A00F0FCF80398A7EBF0
:1021800005091FFA89F1009680B2129B089A00F0A7
:10219000F1F802981FFA89F1009680B2129B089A12
:1021A00000F0E8F808EB05091FFA8BF11FFA89F037
:1021B0000096129B089A00F0DDF80198009681B213
:1021C0001FFA89F0129B089A00F0D4F8BAF1000FB8
:1021D00005DA0AEB8400801D0FFA80FA07E0611B24
:1021E0000AEB81000A306D1E0FFA80FA2DB2641CD2
:1021F00024B2AC4292DD8EE710010020087900087D
:102200002DE9FF5F1E468A460024DFF85090DDF876
:1022100038801EE0029800250719009904FB06F09B
:1022200001EB400B12E000BFB9F808100AEB050300
:1022300048468B4209DA4089874206DA0BEB4500B3
:10224000B9B2028898B200F031FA6D1CB542EBDBEE
:10225000641C4445DEDBBDE8FF9F00001001002048
:102260002DE9FE4F1646324A1D469388834208D315
:10227000D3888B4205D39388B34202D3D288AA4233
:1022800004D2BDE8FE4F2BA000F094BC83468A46E2
:10229000321A00D5821B91466A1A002A00DD4A1BB9
:1022A00090464FF0FF32B34501D2012000E01046C6
:1022B0000290AA4500D2012209EB080400270192EE
:1022C0007F1C0E98FFB2012805D10320B7FBF0F167
:1022D00000FB1170F8B10120DDE90C23009051469C
:1022E000584600F047F800BFB8EB440F07DCB34591
:1022F0001CD0029944440BEB01001FFA80FBB9EBA0
:10230000440FDDDBAA4511D001994C440AEB0100D2
:102310001FFA80FAD4E7012000904FF6FF72514671
:1023200058460D9B00F026F80027DDE7BDE8FE8F3C
:10233000100100204465627567203A205061696E83
:10234000745F447261774C696E6520496E70757474
:10235000206578636565647320746865206E6F72AC
:102360006D616C20646973706C61792072616E6755
:10237000650D0A002DE9F05F814626481C46884617
:1023800083880A9993464B4502D3C288424504D2BA
:10239000BDE8F05F204800F00DBC012901D0002607
:1023A00034E00025681E00EB440718E009EB050047
:1023B0000026A0EB040A0EE0BAF1000F0DD408EBE2
:1023C0000600001B09D481B21FFA8AF05A4600F0B9
:1023D0006DF9761C36B2B742EEDC6D1C2DB2AF4201
:1023E000E4DCBDE8F09F002509EB06077F1E09E04D
:1023F00008EB0500401E81B2B8B25A4600F056F90B
:102400006D1C2DB2A542F3DB761C36B2A642EADB88
:10241000E7E70000100100204C7900082DE9F05F8B
:102420001D46904606468A46DDF828B0B9E07F2969
:102430004FF0000056D8AA884EE053232C6843433F
:1024400014F813308B4246D153214843022101EB4B
:10245000400004EB0009002739E000242EE000BF13
:10246000ABF57F40FF384FEAE47004EB507020F08A
:102470000700A4EB000299F800104FF0800020FA4A
:1024800002F001EA000101D009B907E071B10AEBDD
:10249000070081B2301980B20B9A05E00AEB070001
:1024A00081B2301980B25A4600F000F9404804EA7F
:1024B0000001072901D109F10109641C2889A04202
:1024C000CEDC287A400701D009F101097F1C688918
:1024D000B842C2DC02E0401C8242AEDC08F10108D6
:1024E000E8885DE00127AA8855E053232C68434320
:1024F00014F813C08C454DD107EB4303E45C98F806
:1025000001309C4246D15321484302212A6801EB05
:10251000400002EB0009002738E000242DE000BF56
:10252000ABF57F40FF384FEAE47004EB507020F0C9
:102530000700A4EB000299F800104FF0800020FA89
:1025400002F001EA000101D009B907E071B10AEB1C
:10255000070081B2301980B20B9A05E00AEB070040
:1025600081B2301980B25A4600F0A0F810482040DD
:10257000072801D109F10109641C2889A042CFDC98
:10258000287A400701D009F101097F1C6889B84207
:10259000C3DC02E0401C8242A7DC288908F1020863
:1025A000064498F8001000297FF441AFBDE8F09F81
:1025B000070000802DE9FC5F80461B4889460D46D8
:1025C0008188DDF834B01E4617464446A14203D345
:1025D000C1888246A94222D2BDE8FC5F134800F0C0
:1025E000E9BAB088BAF8043001195046994203D9C3
:1025F000F188444629448DB2F188C088294481423B
:1026000001D944464D460C99CDE9001B3346294675
:102610002046FFF76BFCB0887F1C204484B23A78D8
:10262000002ADED1BDE8FC9F10010020C078000820
:102630002DE9F0410D4C17460D460646208161817B
:10264000A3816082A182A28A618A09A000F0B2FA05
:10265000E781002020822FB1B42F03D0A580E6802F
:10266000BDE8F081A680E580FAE7000010010020B7
:10267000576964746842797465203D2025642C2074
:1026800048656967687442797465203D2025640D4A
:102690000A00000001494860704700001000002057
:1026A00001490860704700001000002030B4044663
:1026B00024488388A3423AD3C3888B4237D3C38943
:1026C000E3B15A2B1CD0B42B20D0B3F5877F37D180
:1026D0000B464189091B491E89B2048A0CB3012C9F
:1026E0001BD0022C05D0032C2AD10489E31A5B1ECF
:1026F0009BB24489611A491E89B212E02346ECE775
:102700000389591A491E8BB22146E6E703891B1B30
:102710005B1E44899BB2611ADDE70489E31A5B1EE4
:102720009BB204899C4202D34089884203D230BCC8
:1027300005A000F03FBA18460D4B1B6830BC184787
:1027400030BC7047100100204465627567203A2054
:10275000457863656564696E6720646973706C6150
:102760007920626F756E6461726965730D0A00008D
:1027700010000020704738B50B4600920446002236
:10278000802100F008F8002804D0606D40F020009F
:102790006065032038BD2DE9F0411D4617460E4601
:1027A0000446DDF8188008E0681C06D0FEF7A2F8A1
:1027B000A0EB0800A8420BD255B12068806836EA29
:1027C000000030D00020B842EED10020BDE8F081FA
:1027D0002068416821F0E00141606068B0F5827FC7
:1027E0000BD1A068B0F5004F02D0B0F5806F04D1D6
:1027F0002068016821F040010160A06AB0F5005F27
:1028000009D12068016821F4005101602068016845
:1028100041F400510160012084F85100002084F847
:1028200050000320D2E70120CDE77047FEF768B8DB
:1028300030B58FB028216846FDF78BFC14210AA81B
:10284000FDF787FC01210804CDE900100024029463
:1028500002250491CDE907504FF4E0100990684635
:10286000FEF7C4F90F20CDE90A056802CDE90C4056
:1028700002210AA80E94FEF7CDF80FB030BD00007B
:102880000D48016841F00101016041680B4A1140A7
:10289000416001680A4A11400160016821F4802109
:1028A0000160416821F4FE0141604FF41F01816025
:1028B0000449C00308607047001002400000FFF8A0
:1028C000FFFFF6FE08ED00E0F0B50268164B174C6E
:1028D000174D4FF08047984205D0B84203D0A04230
:1028E00001D0A84203D122F070064A6832439842D0
:1028F00005D0B84203D0A04201D0A84203D122F4AF
:102900004074CA6822434C6922F08002224302606C
:102910008A68C2620A688262984201D109690163C9
:1029200001214161F0BD0000002C01400004004085
:102930000008004010B501F01F030121046A99400E
:102940008C430462016A9A401143016210BD000089
:1029500030B5026A22F001020262026A43688469A9
:1029600024F073050C682C4322F002058A682A4380
:102970000A4DA8420BD122F00805CA6823F440731F
:102980002A434D6922F004021D438B692B434360A7
:10299000846149684163026230BD0000002C01403F
:1029A00030B5026A22F010020262026A436884694A
:1029B0000D6824F4E64444EA05248D6822F02002E0
:1029C00042EA05120B4DA8420ED1CD6822F08002DA
:1029D00042EA05124D6923F4406343EA85038D6999
:1029E00022F0400243EA85034360846149688163C1
:1029F000026230BD002C014030B5026A22F48072C0
:102A00000262036A4268C46923F4007324F0730508
:102A10000C682C438D6843EA05230C4DA8420ED167
:102A2000CD6823F4006343EA05234D6922F4405244
:102A300042EA05128D6923F4806342EA051242607E
:102A4000C4614968C163036230BD0000002C0140CD
:102A500030B5026A22F480520262046A4268C36995
:102A60000D6823F4E64343EA05238D6824F40054FB
:102A700044EA0534064DA84204D14D6922F480424F
:102A800042EA85124260C36149680164046230BD54
:102A9000002C01402DE9F041044600680169E2681C
:102AA00021F44051114301612169A0680843616923
:102AB00008432168CA6841F20C639A430243CA6022
:102AC00020684169A26921F44071114341611E49A6
:102AD000206864253226884202D1FEF741F801E0E1
:102AE000FEF72EF800EBC00101EB001160686FF0FB
:102AF00018078000B1FBF0F2B2FBF5F2B1FBF0F386
:102B00007A4303EB8202B1FBF0F306EB0212B2FB55
:102B1000F5F2B3FBF5F302F0F00202EB0312B1FBA6
:102B2000F0F3B1FBF0F0B0FBF5F0784303EB80007D
:102B300006EB0010B0FBF5F0216800F00F00104428
:102B40008860BDE8F0810000003801402DE9F041C7
:102B5000984617460E460446069D1DE0681C1BD08D
:102B60002DB1FDF7C7FEA0EB0800A84214D92068DC
:102B7000C16821F4D071C1602068416921F0010170
:102B80004161202084F8390084F83A00002084F85C
:102B900038000320BDE8F0812068006836EA0000B4
:102BA00004D00020B842D9D00020F3E70120F9E793
:102BB000FEE700000FB4054B10B503A9044A0298C4
:102BC00000F0EAF810BC5DF814FB0000C9340008FE
:102BD000340000200907090E002804DB00F1E02082
:102BE00080F80014704700F00F0000F1E02080F83A
:102BF000141D704702E008C8121F08C1002AFAD14C
:102C000070477047002001E001C1121F002AFBD16C
:102C1000704700002DE9FF5F82B00021DDE904303C
:102C2000020DDDF840B0034318D044F61050A2F274
:102C3000FF3242431514119801281FD0A5EB0B0059
:102C4000401C5FEA000A4FF000064E4FDFF8389153
:102C5000B046504615D5CAF1000413E0119801247E
:102C60004AA3012801D16FEA0B010298119AC0E929
:102C70000031C0E9024206B0BDE8F09FCBF1000090
:102C8000DFE704460021404A491842EB0450CDE9F1
:102C9000001012E0E00707D032463B464046494666
:102CA000FDF750FB8046894632463B4610461946A2
:102CB000FDF748FB06460F466410002CEAD1DDE91B
:102CC0000401DDE90023BAF1000F06DAFDF73AFB53
:102CD00042464B46FDF736FB05E0FDF7A5FB4246B5
:102CE0004B46FDF7A1FB04460E460022284BFDF79C
:102CF00023FC03D84FF0FF30014607E00022254BAC
:102D000020463146FDF777FAFDF7FDFB102409E078
:102D1000002C0ADB0A220023FDF73CFA039B303229
:102D20001A55641E50EA0102F2D1641C039AC4F1E0
:102D300011031444119A012A03D0012208430DD132
:102D40000AE0084304D000204FF0110B119072E705
:102D5000A3EB0B056D1E0DE05B4504DD4FF000029B
:102D600005F1010504E003DA4FF00002A5F10105C9
:102D7000002AECD002981199C0E90231C0E900455F
:102D800079E70000000014400000F03F3000000030
:102D90000000F0430000E03F2DE9FF4F95B09B4657
:102DA0008946064600250FE2252877D100242746CC
:102DB000F84A0121059400E0044316F8013F203B46
:102DC00001FA03F01042F7D130782A2811D06FF0C1
:102DD0002F033078A0F13002092A16D8059A44F062
:102DE000020402EB820203EB42021044761C0590BF
:102DF000EFE759F8042B0592002A03DA504244F415
:102E00000054059044F00204761C30782E2816D128
:102E100016F8010F44F004042A280DD06FF02F0299
:102E20003078A0F13003092B09D807EB870302EBB8
:102E30004303C718761CF3E759F8047B761C3078F7
:102E40006C280FD006DC4C2817D068280DD06A28D3
:102E500014D104E0742810D07A280FD10DE044F486
:102E600000140AE044F4801401E044F44014727841
:102E7000824202D104F58014761C761C30786628D4
:102E80000BD013DC582877D009DC002875D04528F2
:102E9000F6D04628F4D047281AD19DE118E06328DF
:102EA00035D0642879D0652812D195E1702873D087
:102EB00008DC6728F1D069286FD06E280DD06F2804
:102EC00006D1B5E073282CD0752875D0782874D039
:102ED0005A46179990476D1C75E1C4F302500228B9
:102EE00009D003280DD0D9F8001004280DD00D60AA
:102EF00009F1040967E1D9F80010EA17C1E90052A5
:102F0000F6E7D9F800100D80F2E70D70F0E719F838
:102F1000041B8DF8001000208DF80100EA46012006
:102F200003E059F804AB4FF0FF3061074FF00001A8
:102F300002D40DE008F101018846B9420FDA80455C
:102F4000F8DB1AF808100029F4D108E008F10101B3
:102F500088468142FADB1AF808100029F6D1059854
:102F60005B46A0EB080721463846179A00F094FA12
:102F7000284400EB080507E04DE029E10DE01AF8D0
:102F8000010B5A4617999047B8F10108F7D25B46F2
:102F900021463846179A13E142E00A220092C4F310
:102FA00002524FF0000A022A08D059F804CB032A33
:102FB0004FEAEC710AD00DE029E02AE009F107019F
:102FC00021F00702F2E802C1914609E00FFA8CFCF9
:102FD0004FEAEC71042A03D14FFA8CFC4FEAEC71F2
:102FE000002907DA0A460021DCF1000C61EB02013E
:102FF0002D2202E0220504D52B228DF80420012287
:1030000003E0E20701D02022F7E7904659E00A21C9
:1030100002E010220DE010214FF0000A00910BE0B9
:1030200010224FF0000A44F004040827009203E045
:1030300008224FF0000A0092C4F30252022A05D07F
:1030400059F804CB0021032A08D009E009F107014F
:1030500021F00702F2E802C1914605E01FFA8CFC5C
:10306000042A01D10CF0FF0C4FF00008220728D5EC
:10307000702806D0009B83F0100353EA0A0305D0A2
:103080000EE040228DF80420012208E05CEA0102F3
:1030900006D030228DF804208DF8050002229046DB
:1030A000009B83F0080353EA0A030AD15CEA010299
:1030B00001D1620705D530228DF804204FF00108B8
:1030C0007F1E582804D034A003900EA802900DE073
:1030D00036A0F9E753466046009AFDF75BF8844650
:1030E0000398825C0298401E029002705CEA010024
:1030F000F0D1029806A9081A00F1200A600702D54B
:1031000024F4803400E00127574502DDA7EB0A00D4
:1031100000E0002000EB0A01009005984144401AAD
:103120000590E00306D45B462146179A059800F007
:10313000B3F90544002706E001A85A46C05D179977
:1031400090476D1C7F1C4745F6DBE0030CD55B46C2
:103150002146179A059800F09FF9054404E03020B5
:103160005A46179990476D1C0099481E00900029F7
:10317000F5DC08E0029802995A460078491C029151
:10318000179990476D1CBAF10001AAF1010AF1DC10
:1031900065E100000928010030313233343536371B
:1031A0003839616263646566000000003031323393
:1031B0003435363738394142434445460000000033
:1031C00000F058F90544761C307800287FF4ECAD07
:1031D00019B02846BDE8F08F620700D4062709F130
:1031E000070222F0070CFCE80223E14603F0004846
:1031F0005FEA080C02D00FF2702C0DE05FEA045C6D
:1032000002D50FF2682C07E05FEAC47C02D00FF20F
:10321000602C01E0AFF2700C4FF0FF3823F0004358
:10322000CDF850C065280CD006DC452809D04628CA
:103230001DD047283DD13DE0662818D067287ED1B3
:1032400038E00021112F01DB112000E0781CCDE9CE
:10325000000106A90EA8FFF7DDFCDDE90F010E9ABB
:1032600003910021009207F1010A04914DE04FF013
:1032700000400097CDE9011006A90EA8FFF7CAFC8F
:10328000DDE90F0203920E9B11990022DDF80CA0DC
:103290000093049211B9791C00EB010AB7EB0A0004
:1032A00004D4C0F1FF3007F1010A0490AAEB070033
:1032B000019044E0012F00DA01270021112F01DDE8
:1032C000112000E03846CDE9000106A90EA8FFF75D
:1032D000A1FCDDE90F010E9A0391002104910092F7
:1032E000BA4621070CD40399514500DA8A46BAF14F
:1032F000010F05DD009AAAF10101515C302908D0C7
:10330000B84202DA10F1040F06DA0121CDE901100A
:1033100015E0AAF10101E9E7002805DC0499014460
:103320000491AAEB000102E0411C514500DD8A46F0
:103330000499401A401C01904FF000400290200771
:1033400004D40198504501DBCDF8048000208DF8AD
:103350004F0002980DF14F07B0F1004F25D02B2000
:103360000E9002984FF0020800280CDA40420290BA
:103370002D200E9007E00A210298FCF7F5FE30316F
:10338000029007F8011DB8F10001A8F10108F2DC74
:1033900002980028EFD1791E0E980870307800F05E
:1033A000200040F0450007F8020D12A8C01B00F1F4
:1033B00007081498007800B1012000EB0A01019879
:1033C00001EBE07105984144401A401E0590E0036E
:1033D00006D45B462146179A059800F05DF805442F
:1033E0001498007818B15A46179990476D1CE0035D
:1033F00024D55B462146179A059800F04DF8054400
:103400001CE00498002807DBDDE90301884203DDA6
:103410000098405C179901E0179930205A46904770
:10342000049805F10105401C04900198401E01908C
:1034300004D12E205A46179990476D1CBAF100010D
:10344000AAF1010ADDDC05E017F8010B5A461799CD
:1034500090476D1CB8F10001A8F10108F4DC5B464F
:103460002146179A0598ABE62D0000002B000000BE
:10347000200000002DE9F041044600251E461746B5
:10348000880404D405E039462020B0476D1C641E32
:10349000F9D52846BDE8F0812DE9F0410446002524
:1034A0001E469046C80301D5302700E02027880437
:1034B00004D505E041463846B0476D1C641EF9D579
:1034C0002846BDE8F081000013B54FF6FF730122D6
:1034D00069460248FDF7C2FF00981CBDD0000020DD
:1034E000FDF716FAFFF7A4F9FEF72AFCFEF77CFCBD
:1034F000FEF79EFCFEF7D6FCFEF71CFBFEE7000085
:103500000000000000000102030406070809000093
:1035100000000102030400000000000000000000A1
:10352000000000000000000000000000000000009B
:1035300000000000000000000C000C000C000C005B
:103540000C000C000C000C0000000C00000000003F
:10355000000000000000000000001DC01DC0088029
:10356000088008800000000000000000000000004B
:1035700000000000000000000D800D800D800D8017
:103580003FC01B003FC01B001B001B001B000000B6
:1035900000000000000004001F80318031803800EE
:1035A0001E000F000380318031803F0004000400C2
:1035B000000000000000000018002400240018C0D3
:1035C00007801E00318002400240018000000000A0
:1035D000000000000000000000000F0018001800AC
:1035E00018000C001D80370033001D800000000013
:1035F00000000000000000000000070007000200BB
:1036000002000200000000000000000000000000B6
:1036100000000000000000000300030006000E0090
:103620000C000C000C000C000E0006000300030050
:103630000000000000000000180018000C00060048
:10364000060006000600060006000C001C0018001C
:103650000000000000000000060006003FC03FC060
:103660000F001F8019800000000000000000000013
:103670000000000000000000000000000400040042
:1036800004003F800400040004000000000000006B
:10369000000000000000000000000000000000002A
:1036A0000000000000000000060004000C000800FC
:1036B0000800000000000000000000000000000002
:1036C00000003F800000000000000000000000003B
:1036D00000000000000000000000000000000000EA
:1036E00000000000000000000C000C0000000000C2
:1036F00000000000000000C000C001800180030045
:10370000030006000C000C00180018003000300008
:1037100000000000000000000E001B00318031801E
:1037200031803180318031801B000E0000000000AC
:10373000000000000000000006003E000600060039
:10374000060006000600060006003FC0000000005C
:1037500000000000000000000F001980318031805F
:10376000030006000C00180030003F80000000003D
:1037700000000000000000003F00618001800300A5
:103780001F0003800180018061803F000000000075
:103790000000000000000000070007000F000B0001
:1037A0001B00130033003F8003000F800000000067
:1037B00000000000000000001F8018001800180022
:1037C0001F0011800180018021801F000000000087
:1037D000000000000000000007801C0018003000FE
:1037E000370039803180318019800F0000000000DF
:1037F00000000000000000007F00430003000600FE
:103800000600060006000C000C000C000000000082
:1038100000000000000000001F0031803180318076
:103820001F0031803180318031801F000000000096
:1038300000000000000000001E00330031803180D5
:1038400033801D800180030007003C000000000061
:1038500000000000000000000000000000000C005C
:103860000C000000000000000C000C000000000034
:103870000000000000000000000000000000030045
:10388000030000000000000006000400080008001B
:103890000000000000000000000000C00300040061
:1038A0001800600018000400030000C000000000C1
:1038B0000000000000000000000000000000000008
:1038C0007FC000007FC0000000000000000000007A
:1038D000000000000000000000006000180004006C
:1038E000030000C003000400180060000000000096
:1038F000000000000000000000001F003180318047
:10390000018007000C000C0000000C00000000000B
:1039100000000000000000000E0011002100210046
:103920002700290029002700200011000E000000B8
:10393000000000000000000000003F000F00090030
:10394000198019801F8030C030C079E0000000006D
:10395000000000000000000000007F003180318086
:1039600031803F003180318031807F0000000000D5
:10397000000000000000000000001F4030C0604058
:10398000600060006000604030801F0000000000A8
:10399000000000000000000000007F00318030C007
:1039A00030C030C030C030C031807F000000000027
:1039B000000000000000000000007F8030803080A8
:1039C00032003E003200308030807F8000000000F6
:1039D000000000000000000000007FC030403040C8
:1039E00032003E003200300030007C000000000059
:1039F000000000000000000000001E803180608098
:103A00006000600067C0618031801F00000000001E
:103A1000000000000000000000007BC03180318009
:103A200031803F803180318031807BC000000000D8
:103A3000000000000000000000003FC0060006007B
:103A4000060006000600060006003FC00000000059
:103A5000000000000000000000001FC00300030081
:103A6000030003006300630063003E0000000000E9
:103A7000000000000000000000007BC03180330027
:103A800036003C003E003300318079C00000000069
:103A9000000000000000000000007E001800180078
:103AA000180018001840184018407FC0000000009F
:103AB00000000000000000000000E0E060C071C0F5
:103AC0007BC06AC06EC064C060C0FBE00000000044
:103AD0000000000000000000000073C03180398049
:103AE0003D80358037803380318079800000000050
:103AF000000000000000000000001F00318060C0D6
:103B000060C060C060C060C031801F000000000065
:103B1000000000000000000000007F0031803180C4
:103B2000318031803F00300030007E000000000016
:103B3000000000000000000000001F00318060C095
:103B400060C060C060C060C031801F000CC01F80BA
:103B5000000000000000000000007F003180318084
:103B600031803E003300318031807CE00000000075
:103B7000000000000000000000001F803180318044
:103B800038001F000380318031803F0000000000BA
:103B9000000000000000000000007F804C804C808E
:103BA0004C800C000C000C000C003F0000000000DA
:103BB000000000000000000000007BC03180318068
:103BC000318031803180318031801F000000000061
:103BD000000000000000000000007BC03180318048
:103BE0001B001B001B000A000E000E00000000005E
:103BF00000000000000000000000FBE060C064C0A6
:103C00006EC06EC02A803B803B8031800000000087
:103C1000000000000000000000007BC031801B009D
:103C20000E000E000E001B0031807BC00000000063
:103C30000000000000000000000079E030C01980A2
:103C40000F0006000600060006001F8000000000AE
:103C5000000000000000000000003F8021802300E1
:103C6000060004000C00188030803F800000000037
:103C700000000000000000000780060006000600AB
:103C80000600060006000600060006000600078083
:103C900000000000000030003000180018000C0088
:103CA0000C000600030003000180018000C000C07A
:103CB00000000000000000001E00060006000600D4
:103CC00006000600060006000600060006001E00AC
:103CD00000000000000004000A000A00110020801B
:103CE0002080000000000000000000000000000034
:103CF00000000000000000000000000000000000C4
:103D000000000000000000000000000000000000B3
:103D100000000000FFE008000400020000000000B6
:103D20000000000000000000000000000000000093
:103D300000000000000000000000000000001F0064
:103D4000018001801F80318033801DC00000000091
:103D5000000000000000000070003000300037005C
:103D6000398030C030C030C039807700000000009A
:103D700000000000000000000000000000001E80A5
:103D8000318060806000608031801F000000000092
:103D900000000000000000000380018001801D8001
:103DA000338061806180618033801DC0000000002D
:103DB00000000000000000000000000000001F00E4
:103DC000318060C07FC0600030C01F8000000000F4
:103DD000000000000000000007E00C000C003F8025
:103DE0000C000C000C000C000C003F8000000000D8
:103DF00000000000000000000000000000001DC0E6
:103E0000338061806180618033801D80018001800A
:103E10001F0000000000000070003000300037007C
:103E2000398031803180318031807BC000000000DA
:103E300000000000000000000600060000001E0058
:103E4000060006000600060006003FC00000000055
:103E500000000000000000000600060000003F0017
:103E6000030003000300030003000300030003003A
:103E70003E0000000000000070003000300037807D
:103E800036003C003C003600330077C000000000E4
:103E900000000000000000001E00060006000600F2
:103EA000060006000600060006003FC000000000F5
:103EB00000000000000000000000000000007F8003
:103EC00036C036C036C036C036C076E000000000CE
:103ED000000000000000000000000000000077006B
:103EE000398031803180318031807BC0000000001A
:103EF00000000000000000000000000000001F00A3
:103F0000318060C060C060C031801F0000000000D0
:103F1000000000000000000000000000000077002A
:103F2000398030C030C030C03980370030003000B8
:103F30007C000000000000000000000000001DC028
:103F4000338061806180618033801D8001800180C9
:103F500007C00000000000000000000000007B809F
:103F60001CC018001800180018007F000000000096
:103F700000000000000000000000000000001F80A2
:103F800031803C001F00038031803F0000000000B2
:103F900000000000000000001800180018007F005A
:103FA000180018001800180018800F00000000000A
:103FB000000000000000000000000000000073800E
:103FC000318031803180318033801DC0000000009D
:103FD00000000000000000000000000000007BC0A6
:103FE000318031801B001B000E000E00000000001D
:103FF0000000000000000000000000000000F1E0F0
:1040000060C064C06EC03B803B8031800000000017
:1040100000000000000000000000000000007BC065
:104020001B000E000E000E001B007BC000000000F5
:10403000000000000000000000000000000079E027
:1040400030C0198019800B000F00060006000C001C
:104050003E000000000000000000000000003F8063
:10406000218003000E00180030803F800000000017
:10407000000000000000000006000C000C000C0016
:104080000C000C0018000C000C000C000C000600CA
:104090000000000000000000060006000600060008
:1040A00006000600060006000600060006000600E0
:1040B00000000000000000000C00060006000600E2
:1040C00006000600030006000600060006000C00BD
:1040D00000000000000000000000000000000000E0
:1040E0001800248003000000000000000000000011
:1040F000000000000000C4E3000000000000000019
:1041000000000000000000000000000000000000AF
:104110000000000001C1C00001E3E00003E3C000B3
:1041200003C7800003C7FFFF078FFFFF078F000F44
:104130000F1E001E0F3C1E1E1F3C1E3E1F181E3C65
:104140003F001E1C7F001E007F079E70FF079EF031
:10415000EF0F9E786F0F1E780F0F1E3C0F1E1E3C38
:104160000F1E1E1E0F3C1E1E0F3C1E1F0F7C1E0F1F
:104170000F781E0E0F001E000F001E000F003C00E7
:104180000F07FC000F07F80000000000000000000F
:10419000000000000000000000000000BAC30000A2
:1041A000000000000000000000000000000000000F
:1041B0000000000000000F0000000F0000000F07CB
:1041C000FFFE0F07FFFE0F00003E1E0000FCFFF881
:1041D00001F0FFF803E01E7807C01E780F803C78DE
:1041E0000F003C780F003C780F003C780F003C7FBC
:1041F000FFFF78FFFFFF78F00F0078F00F003DE041
:104200000F001FE00F000FE00F0007C00F0007E0D6
:104210000F0007F00F000FF80F001E7C0F003C3856
:104220000F0078000F00F003FF006001FE000000A7
:10423000000000000000000000000000000000007E
:104240000000CEA2000000000000000000000000FE
:10425000000000000000000000000000030701E073
:10426000078701E0070701C00FF779C01EF77BC081
:104270001EF77B803CF77BFF78F77BFFF8F77F9E8C
:10428000F7FFFF9E67FFFF9E07007F9C0F000F9CBC
:104290001E001F9C1E7FFFBC3E7FF3FC3E0003FC04
:1042A0007E0001F8FE0001F8FE7FE1F8DE7FE1F814
:1042B0001E78E0F01E78EEF01E78FFF01E78FDF814
:1042C0001E79FBFC1EF1F7BC1EF0EF9E1FE00F0FE6
:1042D0001EC01E0F1E000C070000000000000000A2
:1042E0000000000000000000C8ED00000000000019
:1042F000000000000000000000000000000003C0FB
:10430000780007807800078078000780F0000F00B1
:10431000F000FFFFFFFFFFFFFFFF1E03C01F1E0394
:10432000C01E1FE78F3E3DE78F3C3DEF0F7C3DE712
:104330000F7879E00F0079E00E007FFE0E007FFE1F
:104340001F0001E01F0001E01F0001E01F8001E0ED
:104350001F8001E03F8001FF3FC00FFF7BC0FFF0E7
:1043600079E0F9E0F1F001E1F0F001E3E0F801E7D4
:10437000C07C01FF803F01FF001F01EC000E000028
:104380000000000000000000000000000000D1C597
:10439000000000000000000000000000000000001D
:1043A0000000000000000000000077000000FF0097
:1043B0007FFCF7807FFDE3C001C1E3C001C3C18082
:1043C0003DC7FFFF39C7FFFF39CF838079DF838087
:1043D00079FF838079DF838071C383807FFFFFFE55
:1043E0007FFFFFFE03C3838007C3838007C38380EF
:1043F0000FC383800FC383801FC3FFFE1DC3FFFE57
:104400003DC3838079C38380F1C38380F1C38380FC
:1044100061C3838001C3FFFF03C3FFFF1FC380008D
:104420001F8380000000000000000000000000006A
:1044300000000000BADA00000000000000000000E8
:10444000000000000000000000000000000000006C
:104450000000000000001FFFFFFC1FFFFFFC1E0309
:10446000C03C1EC3C73C1FE3C7BC1EF3CF3C1EFBB2
:10447000DF3C1E7BDE3C1E33DC3C1E03C03C1FFFCA
:10448000FFFC1FFFFFFC1E03C03C0003C000000335
:10449000C0003FFFFFFC3FFFFFFC0003C000000324
:1044A000C0000003C000FFFFFFFFFFFFFFFF000091
:1044B00000001C3870703E78F8F83C7C787C7C3CBE
:1044C0003C3EF83E3C1FF01C180E000000000000AF
:1044D00000000000000000000000B4CB000000005D
:1044E00000000000000000000000000000000000CC
:1044F000000000000000000000783C0000783C0054
:1045000000783C0000783C0000783C0000783C0CCF
:104510003C783C1E3C783C3F3C783CF83C7FFDF0CE
:104520003C7FFFE03C783F803C783E003C783C009C
:104530003C783C003C783C003C783C003C783C00BB
:104540003C783C003C783C0E3C783C0F3C783C0F7F
:104550003C79FC0F3C7FFC0F3FFF3C0F3FF03E1EC1
:10456000FF001FFEF0000FFC000000000000000034
:10457000000000000000000000000000000000003B
:10458000D7D600000000000000000000000000007E
:10459000000000000000000380000007800000030E
:1045A000C0000003E0000001E0007FFFFFFE7FFF8E
:1045B000FFFE7800001E7800001E7800001E7800C4
:1045C000001E7BFFFFDE03FFFFC000000FC00000E6
:1045D0003F0000007E000001F8000001E000000143
:1045E000E000FFFFFFFFFFFFFFFF0001E000000111
:1045F000E0000001E0000001E0000001E000000137
:10460000E0000003E0000003C00000FFC00000FF66
:10461000800000000000000000000000000000001A
:10462000000000000000CCE50000000000000000D9
:10463000000000000000000000000000000000007A
:104640000000000003C03C0003C03C0003C03C006D
:1046500007803C0007803C0007803C000FFFFFFF05
:104660000FFFFFFF1F01FE001F01FF003F01FF00C2
:104670003F03FF007F03FF807F07BF80FF07BFC0AE
:10468000EF0F3DC0CF0F3DE00F1E3DE00F1E3CF091
:104690000F3C3C780F7C3C7C0FF83C3E0FF7FFDF73
:1046A0000FE7FFCF0FC03C060F003C000F003C009F
:1046B0000F003C000F003C000F003C000000000019
:1046C000000000000000000000000000CFC2000059
:1046D00000000000000000000000000000000000DA
:1046E0000000000000000000000000000000FFFFCC
:1046F000FFFFFFFFFFFF000F8000000F8000000F93
:104700008000000F8000000F8000000F8000000F6D
:10471000E000000FF800000FFC00000FBF00000FCA
:104720009F80000F87E0000F83F0000F80F8000FDC
:10473000807C000F8038000F8000000F8000000F89
:104740008000000F8000000F8000000F8000000F2D
:104750008000000F8000000F8000000F800000002C
:104760000000000000000000000000000000000049
:104770000000B6D4000000000000000000000000AF
:104780000000000000000000000000000000000029
:104790000000007800000078000000787FFC0078BE
:1047A0007FFC0078003C0078003FFFFF303FFFFFB8
:1047B000783C00783C3800783E7800781E78C078E5
:1047C0000F79E0780FF0F07807F0F87803F0787858
:1047D00001E03C7803F03E7803F0187807F80078A1
:1047E00007FC00780F3E00781F1E00783E1F0078FF
:1047F0007C0E00F8F80000F0F0003FF060003FE0B1
:1048000000000000000000000000000000000000A8
:104810000000000000000000D3A60000000000001F
:104820000000000000000000000000000000000187
:10483000C0000003E0000001E0000001F000000003
:10484000F0001FFFFFFF1FFFFFFF1E0000001E0004
:1048500000001E01E0781E01E0781EE1E0781FF103
:10486000F0F81EF0F0F01EF0F0F01EF8F0F01E78F8
:10487000F1F01E78F9E01E7879E01E7C7BE01E3CAA
:104880007BC01E3C7BC01E3C7BC03C3E07803C1C6A
:1048900007803C0007803C000F0078000F007BFF82
:1048A000FFFFF3FFFFFFF0000000600000000000CA
:1048B0000000000000000000000000000000B5C47F
:1048C00000000000000000000000000000000000E8
:1048D000000000000000000003803C0007C03E0014
:1048E00007803C0007807C000F0078007FFE7FFE81
:1048F0007FFEFFFE781EF01E781FE01E781FE01E70
:10490000781FC01E781FC01E781FF01E781EF81E6C
:10491000781E7C1E7FFE3C1E7FFE1E1E781E1F1E04
:10492000781E0F9E781E079E781E071E781E001E9A
:10493000781E001E781E003E781E003C781E003C4B
:104940007FFE003C7FFE007C781E3FF8781E3FF023
:104950000000000000000000000000000000000057
:1049600000000000B5E300000000000000000000AF
:104970000000000000000000000000000000000334
:10498000C0000003C0000003C0000003C00000031B
:10499000FFFF0003FFFF0003C0000003C00000038F
:1049A000C0000003C0000FFFFFF80FFFFFF80F006B
:1049B00000780F0000780F0000780F0000780F00DB
:1049C00000780F0000780FFFFFF80FFFFFF80F00CF
:1049D0000078000000000C3838301E7C78783E3CAF
:1049E00078783C3C3C3C7C3E3C3EF81E3C1EF01E35
:1049F0001E1F701E1C0E00000000000000000000C2
:104A000000000000000000000000D5F300000000DE
:104A10000000000000000000000000000000000096
:104A20000000000000003C00000078007FF07800EB
:104A30007FF0780079FFFFFF79FFFFFF79E1E00069
:104A400079E1E0007BC1EF807BC3CF807BC3CF8067
:104A50007F87CF807F878F807F878F807BCF0F80FE
:104A60007BCFFFFE79EFFFFE79E00F8078E00F80CB
:104A700078F00F8078F00F8078F00F8078FFFFFFDC
:104A800079FFFFFF7FE00F807FC00F8078000F80ED
:104A900078000F8078000F8078000F8078000F80FA
:104AA0000000000000000000000000000000000006
:104AB000CEAA00000000000000000000000000007E
:104AC00000000000000000000000000000000007DF
:104AD00080000E0780001F0780000F87800007C737
:104AE000800001E7800000C78000000780007FFF92
:104AF000FFFC7FFFFFFC0007803C000F803C000FA5
:104B0000003C000F003C000F603C001FF03C001E0A
:104B1000783C003E3C3C003C3E3C007C1F3C007826
:104B20000F3C00F8063C01F0003C03E0007C07C0AD
:104B3000007C0F8000781F0000F83E00FFF07C0032
:104B4000FFE038000000000000000000000000004E
:104B5000000000000000CAF7000000000000000094
:104B60000000000000000000000000000000000045
:104B7000000000000F0000380F0000380F00003860
:104B80000F3FF8380F3FF8380F007838FFE07FFF0D
:104B9000FFE07FFF0F0070380F18F0381F3CF0382F
:104BA0001F1CFE381FDEFE383FEFEF383FFFEF38A7
:104BB0003FF7E7B87F67C7B87F03C3B8FF07E038A0
:104BC000EF07E038EF0FF038CF1FF0380F1E7838BE
:104BD0000F3C7C380F783C380FF838380F6000787D
:104BE0000F000FF80F0007F00F000000000000009A
:104BF000000000000000000000000000DDAE00002A
:104C000000000000000000000000000000000000A4
:104C1000000000000000003C1E00003C1E00003CA4
:104C20001E00FFFFFFFFFFFFFFFF003C1E0007BC51
:104C30001E00078000000FFFFFFC0FFFFFFC1E009F
:104C400000003C0000003C0000007FFFFFF0F7FF89
:104C5000FFF0378380F00787C0F00783F0F007008C
:104C6000E0F0FFFFFFFFFFFFFFFF0F0F00E00F0F60
:104C700081E00E03E1E01E01C1E01FFFFFFE1FFF08
:104C8000FFFE000001E0000003C00000FFC00000C4
:104C9000FF80000000000000000000000000000095
:104CA0000000C5C900000000000000000000000076
:104CB00000000000000000000000000000000000F4
:104CC0003800003E7C003FFE3F3FFFF01FBFE0008A
:104CD00007BC0000033C0000003C003C003C0FFE11
:104CE000703DFFF8F83DFF007C3DE7803F3DE780E9
:104CF0001F3DE78E0E3DE79F003DE7FE0039E7F8D8
:104D00000039E3F01C39E3C01E79E3C01E79E1E00D
:104D10001E79E1E03C79E0F03C79E0F83CF1E07CA0
:104D20003CF1E37C7DF1EF3F79E1FE1F7BE1F80E82
:104D30007BC3E0007981C00000000000000000009B
:104D40000000000000000000410000000000000022
:104D50000000000000000000000000000000000053
:104D600000000000000000000000007C000000FCCB
:104D7000000000FE000000FE000001FF000001FF37
:104D8000000001EF000003EF800003CF800007C7A1
:104D9000800007C7C0000787C0000F83E0000F83B3
:104DA000E0000F01E0001FFFF0001FFFF0003FFFD9
:104DB000F8003E00F8003C00F8007C007C007C001D
:104DC0007C0078003C00F8003E00F8003E00000047
:104DD00000000000000000000000000000000000D3
:104DE0000000000000000000000000000000610062
:104DF00000000000000000000000000000000000B3
:104E000000000000000000000000000000000000A2
:104E10000000000000000000000000000000000092
:104E200000000000000000000000000007F8000083
:104E30001FFE00003FFE00003E3F0000381F000044
:104E4000000F0000000F000003FF00001FFF000024
:104E50003F8F00007C0F00007C0F0000781F0000D7
:104E60007C1F00007E7F00007FFF00003FFF0000EE
:104E70000FCF000000000000000000000000000054
:104E80000000000000000000000000000000000022
:104E900000000000620000000000000000000000B0
:104EA0000000000000000000000000000000000002
:104EB00000003C0000003C0000003C0000003C0002
:104EC00000003C0000003C0000003C0000003C00F2
:104ED00000003CFE00003DFF80003FFFC0003F8F10
:104EE000C0003F07E0003E03E0003E03E0003C015D
:104EF000E0003C01E0003C01E0003C03E0003E0338
:104F0000E0003E03E0003F07C0003F8FC0003FFFCE
:104F100080003FFF00003CFC00000000000000009B
:104F20000000000000000000000000000000000081
:104F3000000000000000000000006300000000000E
:104F40000000000000000000000000000000000061
:104F50000000000000000000000000000000000051
:104F60000000000000000000000000000000000041
:104F7000000000000000000001FC000007FE00002F
:104F80001FFE00003F8600003E0000007C00000085
:104F90007C0000007C000000780000007800000029
:104FA0007C0000007C0000007C0000003E0000004F
:104FB0003F8600001FFE00000FFE000003FC000003
:104FC00000000000000000000000000000000000E1
:104FD00000000000000000000000000000000000D1
:104FE000CEA2000000000000000000000000000051
:104FF00000000000000000000000030701E0078738
:1050000001E0070701C00FF779C01EF77BC01EF74C
:105010007B803CF77BFF78F77BFFF8F77F9EF7FFFD
:10502000FF9E67FFFF9E07007F9C0F000F9C1E00E6
:105030001F9C1E7FFFBC3E7FF3FC3E0003FC7E00F6
:1050400001F8FE0001F8FE7FE1F8DE7FE1F81E784E
:10505000E0F01E78EEF01E78FFF01E78FDF81E7965
:10506000FBFC1EF1F7BC1EF0EF9E1FE00F0F1EC0F1
:105070001E0F1E000C0700000000000000000000D2
:10508000000000000000D1A90000000000000000A6
:105090000000000000000000000000000000000010
:1050A00000000000000000001FFFFFF81FFFFFF8D6
:1050B0000003C0000003C0007FFFFFFE7FFFFFFE74
:1050C0007803C01E7803C01E7FFFFFFE7FFFFFFE38
:1050D0000003C0000003C00007FFFFE007FFFFE080
:1050E0000003C000000000001FFFFFF81FFFFFF8D3
:1050F00000000078000000781FFFFFF81FFFFFF896
:105100000000007800000078000000783FFFFFF802
:105110003FFFFFF8000000780000000000000000E2
:10512000000000000000000000000000B5E70000E3
:10513000000000000000000000000000000000006F
:10514000000000000000000780000007800000074A
:105150008000000780007FFFFFF87FFFFFF87807DF
:1051600080F8780780F8780780F8780780F8780763
:1051700080F8780780F87FFFFFF87FFFFFF8780757
:1051800080F8780780F8780780F8780780F8780743
:1051900080F8780780F87FFFFFF87FFFFFF8780737
:1051A000800E7807800F0007800F0007800F000730
:1051B000801F0007801E0003FFFE0001FFFC0000AF
:1051C00000000000000000000000000000000000DF
:1051D0000000D7D300000000000000000000000025
:1051E00000000000000000000000000000000000BF
:1051F000000000001FFFFFF81FFFFFF8000001F88C
:10520000000007E000000FC000001F8000003E000B
:105210000000FC000001F8000003E0000003E000D3
:105220000003E000FFFFFFFFFFFFFFFF0003E000C0
:105230000003E0000003E0000003E0000003E000E2
:105240000003E0000003E0000003E0000003E000D2
:105250000003E0000003E0000003C00001FFC00005
:1052600000FF8000000000000000000000000000BF
:10527000000000000000000000000000000000002E
:10528000000000000000000000000000000000001E
:10529000000000000000000000000000000000000E
:1052A00000000000000000000000000000000000FE
:1052B00000000000000000000000000000000000EE
:1052C00000000000000000000000200000000000BE
:1052D00000000000000000000000000000000000CE
:1052E00000000000000000000000000000000000BE
:1052F00000000000000000000000000000000000AE
:10530000000000000000000000000000000000009D
:10531000000000000000000000000000000000008D
:10532000000000000000000000000000000000007D
:10533000000000000000000000000000000000006D
:10534000000000000000000000000000000000005D
:10535000000000000000000020000000000000002D
:10536000000000000000000000000000000000003D
:10537000000000000000000000000000000000002D
:10538000000000000000000000000000000000001D
:10539000000000000000000000000000000000000D
:1053A00000000000000000000000000000000000FD
:1053B00000000000000000000000000000000000ED
:1053C00000000000000000000000000000000000DD
:1053D00000000000000000000000000000000000CD
:1053E000000020000000000000000000000000009D
:1053F00000000000000000000000000000000000AD
:10540000000000000000000000000000000000009C
:10541000000000000000000000000000000000008C
:10542000000000000000000000000000000000007C
:10543000000000000000000000000000000000006C
:10544000000000000000000000000000000000005C
:10545000000000000000000000000000000000004C
:10546000000000000000000000000000000000003C
:105470000000000000000000929400000000000006
:10548000000000000000000000000000000000001C
:10549000000000000000000000000000000000000C
:1054A00000000000000000000000000000000000FC
:1054B00000000000000000000000000000000000EC
:1054C00000000000000000000000000000000000DC
:1054D00000000000000000000000000000000000CC
:1054E00000000000000000000000000000000000BC
:1054F000000000000000000000000000200000008C
:105500000000718CFFFF6A4A0000000000000000EC
:10551000000000000000000000000000000000008B
:10552000000000000000000000000000000000007B
:10553000000000000000000000000000000000006B
:10554000000000000000000000000000000000005B
:10555000000000000000000000000000000000004B
:10556000000000000000000000000000000000003B
:10557000000000000000000000000000000000002B
:10558000000000000000000000000000AF73FFFFFB
:10559000FFFFCF7B000000000000000000000000C3
:1055A00000000000000000000000000000000000FB
:1055B00000000000000000000000000000000000EB
:1055C00000000000000000000000000000000000DB
:1055D00000000000000000000000000000000000CB
:1055E00000000000000000000000000000000000BB
:1055F00000000000000000000000000000000000AB
:10560000000000000000000000000000000000009A
:10561000000000000000CB5AFFFFFFFFFFFF6E6B92
:10562000000000000000000000000000000000007A
:10563000000000000000000000000000000000006A
:10564000000000000000000000000000000000005A
:10565000000000000000000000000000000000004A
:10566000000000000000000000000000000000003A
:10567000000000000000000000000000000000002A
:10568000000000000000000000000000000000001A
:1056900000000000000000000000000020000000EA
:1056A0000842FFFFFFFFFFFFFFFFF07B000000004D
:1056B00000000000000000000000000000000000EA
:1056C00000000000000000000000000000000000DA
:1056D00000000000000000000000000000000000CA
:1056E00000000000000000000000000000000000BA
:1056F00000000000000000000000000000000000AA
:105700000000000000000000000000000000000099
:105710000000000000000000000000000000000089
:10572000000000000000000000000421FFFFFFFF58
:10573000FFFFDFFFFFFF8E7300000000000000008E
:105740000000000000000000000000000000000059
:105750000000000000000000000000000000000049
:105760000000000000000000000000000000000039
:105770000000000000000000000000000000000029
:105780000000000000000000000000000000000019
:105790000000000000000000000000000000000009
:1057A00000000000000020002000000000000000B9
:1057B000000000000000FFFFDFFFDFFFFFFFFFFF33
:1057C000FFFFF07B00000000000000000000000070
:1057D00000000000000000000000000000000000C9
:1057E00000000000000000000000000000000000B9
:1057F00000000000000000000000000000000000A9
:105800000000000000000000000000000000000098
:105810000000000000000000000000000000000088
:105820000000000000000000000000000000000078
:105830000000000000000000000000000000000068
:105840009EF7FFFFFFFFFFFFFFFFFFFFFFFFCF7B85
:105850000000000000000000000000000000000048
:105860000000000000000000000000000000000038
:105870000000000000000000000000000000000028
:105880000000000000000000000000000000000018
:105890000000000000000000000000000000000008
:1058A00000000000000000000000000000000000F8
:1058B00000000000000000000000000000000000E8
:1058C0000000000000000000200018C6FFFFFFFFDE
:1058D000DFFFFFFFFFFFFFFFFFFFEF7B0000000088
:1058E00000000000000000000000000000000000B8
:1058F00000000000000000000000000000000000A8
:105900000000000000000000000000000000000097
:105910000000000000000000000000000000000087
:105920000000000000000000000000000000000077
:105930000000000000000000000000000000000067
:105940000000000000000000000000000000000057
:1059500000000000D7BDFFFFFFFFFFFFFFFFFFFFBD
:10596000FFFFFFFFFFFF518C000000000000000060
:105970000000000000000000000000000000000027
:105980000000000000000000000000000000000017
:105990000000000000000000000000000000000007
:1059A00000000000000000000000000000000000F7
:1059B00000000000000000000000000000000000E7
:1059C00000000000000000000000000000000000D7
:1059D000000000000000000020000000000075AD85
:1059E000DFFFFFFFFFFFFFFFFFFFFFFFFFFFFFFFE7
:1059F000FFFF3184000000000000000000000000F4
:105A00000000000000000000000000000000000096
:105A10000000000000000000000000000000000086
:105A20000000000000000000000000000000000076
:105A30000000000000000000000000000000000066
:105A40000000000000000000000000000000000056
:105A50000000000000000000000000000000000046
:105A600000000000000020001CE7FFFFFFFFFFFF19
:105A7000FFFFFFFFFFFFFFFFFFFFFFFFDFFFF39CC5
:105A80000000000000000000000000000000000016
:105A90000000000000000000000000000000000006
:105AA00000000000000000000000000000000000F6
:105AB00000000000000000000000000000000000E6
:105AC00000000000000000000000000000000000D6
:105AD00000000000000000000000000000000000C6
